{
  "_format": "hh-sol-artifact-1",
  "contractName": "BuyMeACoffee",
  "sourceName": "src/smart_contract/contracts/BuyMeACoffee.sol",
  "abi": [
    {
      "inputs": [],
      "stateMutability": "nonpayable",
      "type": "constructor"
    },
    {
      "anonymous": false,
      "inputs": [
        {
          "indexed": true,
          "internalType": "address",
          "name": "from",
          "type": "address"
        },
        {
          "indexed": true,
          "internalType": "address",
          "name": "to",
          "type": "address"
        },
        {
          "indexed": false,
          "internalType": "uint256",
          "name": "amount",
          "type": "uint256"
        },
        {
          "indexed": false,
          "internalType": "string",
          "name": "message",
          "type": "string"
        },
        {
          "indexed": false,
          "internalType": "uint256",
          "name": "timestamp",
          "type": "uint256"
        }
      ],
      "name": "Tipped",
      "type": "event"
    },
    {
      "inputs": [],
      "name": "getAllNotes",
      "outputs": [
        {
          "components": [
            {
              "internalType": "address payable",
              "name": "from",
              "type": "address"
            },
            {
              "internalType": "address payable",
              "name": "to",
              "type": "address"
            },
            {
              "internalType": "uint256",
              "name": "amount",
              "type": "uint256"
            },
            {
              "internalType": "string",
              "name": "message",
              "type": "string"
            },
            {
              "internalType": "uint256",
              "name": "timestamp",
              "type": "uint256"
            }
          ],
          "internalType": "struct BuyMeACoffee.Note[]",
          "name": "",
          "type": "tuple[]"
        }
      ],
      "stateMutability": "view",
      "type": "function"
    },
    {
      "inputs": [],
      "name": "getTipAmount",
      "outputs": [
        {
          "internalType": "uint256",
          "name": "",
          "type": "uint256"
        }
      ],
      "stateMutability": "view",
      "type": "function"
    },
    {
      "inputs": [],
      "name": "getTipCount",
      "outputs": [
        {
          "internalType": "uint256",
          "name": "",
          "type": "uint256"
        }
      ],
      "stateMutability": "view",
      "type": "function"
    },
    {
      "inputs": [],
      "name": "owner",
      "outputs": [
        {
          "internalType": "address payable",
          "name": "",
          "type": "address"
        }
      ],
      "stateMutability": "view",
      "type": "function"
    },
    {
      "inputs": [
        {
          "internalType": "string",
          "name": "_message",
          "type": "string"
        }
      ],
      "name": "tipMe",
      "outputs": [],
      "stateMutability": "payable",
      "type": "function"
    },
    {
      "inputs": [],
      "name": "withdrawEth",
      "outputs": [],
      "stateMutability": "nonpayable",
      "type": "function"
    }
  ],
  "bytecode": "0x6080604052662386f26fc1000060015534801561001b57600080fd5b50336000806101000a81548173ffffffffffffffffffffffffffffffffffffffff021916908373ffffffffffffffffffffffffffffffffffffffff1602179055506110558061006b6000396000f3fe6080604052600436106100555760003560e01c80637b7a68f41461005a5780637dc1a64f146100765780638da5cb5b146100a1578063a0ef91df146100cc578063de8f430c146100e3578063f4e8b4fa1461010e575b600080fd5b610074600480360381019061006f919061081c565b610139565b005b34801561008257600080fd5b5061008b610384565b604051610098919061087e565b60405180910390f35b3480156100ad57600080fd5b506100b661038e565b6040516100c391906108da565b60405180910390f35b3480156100d857600080fd5b506100e16103b2565b005b3480156100ef57600080fd5b506100f8610507565b6040516101059190610aca565b60405180910390f35b34801561011a57600080fd5b506101236106b8565b604051610130919061087e565b60405180910390f35b60006001541161017e576040517f08c379a000000000000000000000000000000000000000000000000000000000815260040161017590610b49565b60405180910390fd5b60015434146101c2576040517f08c379a00000000000000000000000000000000000000000000000000000000081526004016101b990610bb5565b60405180910390fd5b6001600260008282546101d59190610c04565b9250508190555060036040518060a001604052803373ffffffffffffffffffffffffffffffffffffffff1681526020013073ffffffffffffffffffffffffffffffffffffffff168152602001600154815260200183815260200142815250908060018154018082558091505060019003906000526020600020906005020160009091909190915060008201518160000160006101000a81548173ffffffffffffffffffffffffffffffffffffffff021916908373ffffffffffffffffffffffffffffffffffffffff16021790555060208201518160010160006101000a81548173ffffffffffffffffffffffffffffffffffffffff021916908373ffffffffffffffffffffffffffffffffffffffff1602179055506040820151816002015560608201518160030190816103099190610e44565b506080820151816004015550503073ffffffffffffffffffffffffffffffffffffffff163373ffffffffffffffffffffffffffffffffffffffff167f8e49a4068733fee4b221b542fdd57deb33699662636bfcc83ccae93d40bfd297600154844260405161037993929190610f4f565b60405180910390a350565b6000600254905090565b60008054906101000a900473ffffffffffffffffffffffffffffffffffffffff1681565b3373ffffffffffffffffffffffffffffffffffffffff1660008054906101000a900473ffffffffffffffffffffffffffffffffffffffff1673ffffffffffffffffffffffffffffffffffffffff1614610440576040517f08c379a000000000000000000000000000000000000000000000000000000000815260040161043790610fff565b60405180910390fd5b60008054906101000a900473ffffffffffffffffffffffffffffffffffffffff1673ffffffffffffffffffffffffffffffffffffffff166108fc479081150290604051600060405180830381858888f1935050505061049e57600080fd5b60008054906101000a900473ffffffffffffffffffffffffffffffffffffffff1673ffffffffffffffffffffffffffffffffffffffff166108fc479081150290604051600060405180830381858888f19350505050158015610504573d6000803e3d6000fd5b50565b60606003805480602002602001604051908101604052809291908181526020016000905b828210156106af57838290600052602060002090600502016040518060a00160405290816000820160009054906101000a900473ffffffffffffffffffffffffffffffffffffffff1673ffffffffffffffffffffffffffffffffffffffff1673ffffffffffffffffffffffffffffffffffffffff1681526020016001820160009054906101000a900473ffffffffffffffffffffffffffffffffffffffff1673ffffffffffffffffffffffffffffffffffffffff1673ffffffffffffffffffffffffffffffffffffffff1681526020016002820154815260200160038201805461061490610c67565b80601f016020809104026020016040519081016040528092919081815260200182805461064090610c67565b801561068d5780601f106106625761010080835404028352916020019161068d565b820191906000526020600020905b81548152906001019060200180831161067057829003601f168201915b505050505081526020016004820154815250508152602001906001019061052b565b50505050905090565b6000600154905090565b6000604051905090565b600080fd5b600080fd5b600080fd5b600080fd5b6000601f19601f8301169050919050565b7f4e487b7100000000000000000000000000000000000000000000000000000000600052604160045260246000fd5b610729826106e0565b810181811067ffffffffffffffff82111715610748576107476106f1565b5b80604052505050565b600061075b6106c2565b90506107678282610720565b919050565b600067ffffffffffffffff821115610787576107866106f1565b5b610790826106e0565b9050602081019050919050565b82818337600083830152505050565b60006107bf6107ba8461076c565b610751565b9050828152602081018484840111156107db576107da6106db565b5b6107e684828561079d565b509392505050565b600082601f830112610803576108026106d6565b5b81356108138482602086016107ac565b91505092915050565b600060208284031215610832576108316106cc565b5b600082013567ffffffffffffffff8111156108505761084f6106d1565b5b61085c848285016107ee565b91505092915050565b6000819050919050565b61087881610865565b82525050565b6000602082019050610893600083018461086f565b92915050565b600073ffffffffffffffffffffffffffffffffffffffff82169050919050565b60006108c482610899565b9050919050565b6108d4816108b9565b82525050565b60006020820190506108ef60008301846108cb565b92915050565b600081519050919050565b600082825260208201905092915050565b6000819050602082019050919050565b61092a816108b9565b82525050565b61093981610865565b82525050565b600081519050919050565b600082825260208201905092915050565b60005b8381101561097957808201518184015260208101905061095e565b60008484015250505050565b60006109908261093f565b61099a818561094a565b93506109aa81856020860161095b565b6109b3816106e0565b840191505092915050565b600060a0830160008301516109d66000860182610921565b5060208301516109e96020860182610921565b5060408301516109fc6040860182610930565b5060608301518482036060860152610a148282610985565b9150506080830151610a296080860182610930565b508091505092915050565b6000610a4083836109be565b905092915050565b6000602082019050919050565b6000610a60826108f5565b610a6a8185610900565b935083602082028501610a7c85610911565b8060005b85811015610ab85784840389528151610a998582610a34565b9450610aa483610a48565b925060208a01995050600181019050610a80565b50829750879550505050505092915050565b60006020820190508181036000830152610ae48184610a55565b905092915050565b600082825260208201905092915050565b7f546970206d75737420626520677265617465727468616e203000000000000000600082015250565b6000610b33601983610aec565b9150610b3e82610afd565b602082019050919050565b60006020820190508181036000830152610b6281610b26565b9050919050565b7f416e20616d6f756e74206d757374206265207374617465640000000000000000600082015250565b6000610b9f601883610aec565b9150610baa82610b69565b602082019050919050565b60006020820190508181036000830152610bce81610b92565b9050919050565b7f4e487b7100000000000000000000000000000000000000000000000000000000600052601160045260246000fd5b6000610c0f82610865565b9150610c1a83610865565b9250828201905080821115610c3257610c31610bd5565b5b92915050565b7f4e487b7100000000000000000000000000000000000000000000000000000000600052602260045260246000fd5b60006002820490506001821680610c7f57607f821691505b602082108103610c9257610c91610c38565b5b50919050565b60008190508160005260206000209050919050565b60006020601f8301049050919050565b600082821b905092915050565b600060088302610cfa7fffffffffffffffffffffffffffffffffffffffffffffffffffffffffffffffff82610cbd565b610d048683610cbd565b95508019841693508086168417925050509392505050565b6000819050919050565b6000610d41610d3c610d3784610865565b610d1c565b610865565b9050919050565b6000819050919050565b610d5b83610d26565b610d6f610d6782610d48565b848454610cca565b825550505050565b600090565b610d84610d77565b610d8f818484610d52565b505050565b5b81811015610db357610da8600082610d7c565b600181019050610d95565b5050565b601f821115610df857610dc981610c98565b610dd284610cad565b81016020851015610de1578190505b610df5610ded85610cad565b830182610d94565b50505b505050565b600082821c905092915050565b6000610e1b60001984600802610dfd565b1980831691505092915050565b6000610e348383610e0a565b9150826002028217905092915050565b610e4d8261093f565b67ffffffffffffffff811115610e6657610e656106f1565b5b610e708254610c67565b610e7b828285610db7565b600060209050601f831160018114610eae5760008415610e9c578287015190505b610ea68582610e28565b865550610f0e565b601f198416610ebc86610c98565b60005b82811015610ee457848901518255600182019150602085019450602081019050610ebf565b86831015610f015784890151610efd601f891682610e0a565b8355505b6001600288020188555050505b505050505050565b6000610f218261093f565b610f2b8185610aec565b9350610f3b81856020860161095b565b610f44816106e0565b840191505092915050565b6000606082019050610f64600083018661086f565b8181036020830152610f768185610f16565b9050610f85604083018461086f565b949350505050565b7f596f752063616e206f6e6c792077697468647261772066726f6d20796f75722060008201527f6163636f756e7400000000000000000000000000000000000000000000000000602082015250565b6000610fe9602783610aec565b9150610ff482610f8d565b604082019050919050565b6000602082019050818103600083015261101881610fdc565b905091905056fea2646970667358221220f59ce97819e114688634ab002b8791ebd48d6c3c6c24a2e32a4b088ab05440a164736f6c63430008110033",
  "linkReferences": {},
  "deployedLinkReferences": {}
}