{
  "_format": "hh-sol-artifact-1",
  "contractName": "BuyMeACoffee",
  "sourceName": "src/smart_contract/contracts/BuyMeACoffee.sol",
  "abi": [
    {
      "inputs": [],
      "stateMutability": "nonpayable",
      "type": "constructor"
    },
    {
      "anonymous": false,
      "inputs": [
        {
          "indexed": true,
          "internalType": "address",
          "name": "from",
          "type": "address"
        },
        {
          "indexed": true,
          "internalType": "address",
          "name": "to",
          "type": "address"
        },
        {
          "indexed": false,
          "internalType": "uint256",
          "name": "amount",
          "type": "uint256"
        },
        {
          "indexed": false,
          "internalType": "string",
          "name": "message",
          "type": "string"
        },
        {
          "indexed": false,
          "internalType": "uint256",
          "name": "timestamp",
          "type": "uint256"
        }
      ],
      "name": "Tipped",
      "type": "event"
    },
    {
      "inputs": [],
      "name": "getAllNotes",
      "outputs": [
        {
          "components": [
            {
              "internalType": "address payable",
              "name": "from",
              "type": "address"
            },
            {
              "internalType": "address payable",
              "name": "to",
              "type": "address"
            },
            {
              "internalType": "uint256",
              "name": "amount",
              "type": "uint256"
            },
            {
              "internalType": "string",
              "name": "message",
              "type": "string"
            },
            {
              "internalType": "uint256",
              "name": "timestamp",
              "type": "uint256"
            }
          ],
          "internalType": "struct BuyMeACoffee.Note[]",
          "name": "",
          "type": "tuple[]"
        }
      ],
      "stateMutability": "view",
      "type": "function"
    },
    {
      "inputs": [],
      "name": "getTipAmount",
      "outputs": [
        {
          "internalType": "uint256",
          "name": "",
          "type": "uint256"
        }
      ],
      "stateMutability": "view",
      "type": "function"
    },
    {
      "inputs": [],
      "name": "getTipCount",
      "outputs": [
        {
          "internalType": "uint256",
          "name": "",
          "type": "uint256"
        }
      ],
      "stateMutability": "view",
      "type": "function"
    },
    {
      "inputs": [],
      "name": "owner",
      "outputs": [
        {
          "internalType": "address payable",
          "name": "",
          "type": "address"
        }
      ],
      "stateMutability": "view",
      "type": "function"
    },
    {
      "inputs": [
        {
          "internalType": "string",
          "name": "_message",
          "type": "string"
        }
      ],
      "name": "tipMe",
      "outputs": [],
      "stateMutability": "payable",
      "type": "function"
    },
    {
      "inputs": [],
      "name": "withdrawEth",
      "outputs": [],
      "stateMutability": "nonpayable",
      "type": "function"
    }
  ],
  "bytecode": "0x6080604052662386f26fc1000060015534801561001b57600080fd5b50336000806101000a81548173ffffffffffffffffffffffffffffffffffffffff021916908373ffffffffffffffffffffffffffffffffffffffff16021790555061114f8061006b6000396000f3fe6080604052600436106100555760003560e01c80637b7a68f41461005a5780637dc1a64f146100765780638da5cb5b146100a1578063a0ef91df146100cc578063de8f430c146100e3578063f4e8b4fa1461010e575b600080fd5b610074600480360381019061006f91906108aa565b610139565b005b34801561008257600080fd5b5061008b610412565b604051610098919061090c565b60405180910390f35b3480156100ad57600080fd5b506100b661041c565b6040516100c39190610968565b60405180910390f35b3480156100d857600080fd5b506100e1610440565b005b3480156100ef57600080fd5b506100f8610595565b6040516101059190610b58565b60405180910390f35b34801561011a57600080fd5b50610123610746565b604051610130919061090c565b60405180910390f35b60008054906101000a900473ffffffffffffffffffffffffffffffffffffffff1673ffffffffffffffffffffffffffffffffffffffff163373ffffffffffffffffffffffffffffffffffffffff16036101c7576040517f08c379a00000000000000000000000000000000000000000000000000000000081526004016101be90610bd7565b60405180910390fd5b60006001541161020c576040517f08c379a000000000000000000000000000000000000000000000000000000000815260040161020390610c43565b60405180910390fd5b6001543414610250576040517f08c379a000000000000000000000000000000000000000000000000000000000815260040161024790610caf565b60405180910390fd5b6001600260008282546102639190610cfe565b9250508190555060036040518060a001604052803373ffffffffffffffffffffffffffffffffffffffff1681526020013073ffffffffffffffffffffffffffffffffffffffff168152602001600154815260200183815260200142815250908060018154018082558091505060019003906000526020600020906005020160009091909190915060008201518160000160006101000a81548173ffffffffffffffffffffffffffffffffffffffff021916908373ffffffffffffffffffffffffffffffffffffffff16021790555060208201518160010160006101000a81548173ffffffffffffffffffffffffffffffffffffffff021916908373ffffffffffffffffffffffffffffffffffffffff1602179055506040820151816002015560608201518160030190816103979190610f3e565b506080820151816004015550503073ffffffffffffffffffffffffffffffffffffffff163373ffffffffffffffffffffffffffffffffffffffff167f8e49a4068733fee4b221b542fdd57deb33699662636bfcc83ccae93d40bfd297600154844260405161040793929190611049565b60405180910390a350565b6000600254905090565b60008054906101000a900473ffffffffffffffffffffffffffffffffffffffff1681565b3373ffffffffffffffffffffffffffffffffffffffff1660008054906101000a900473ffffffffffffffffffffffffffffffffffffffff1673ffffffffffffffffffffffffffffffffffffffff16146104ce576040517f08c379a00000000000000000000000000000000000000000000000000000000081526004016104c5906110f9565b60405180910390fd5b60008054906101000a900473ffffffffffffffffffffffffffffffffffffffff1673ffffffffffffffffffffffffffffffffffffffff166108fc479081150290604051600060405180830381858888f1935050505061052c57600080fd5b60008054906101000a900473ffffffffffffffffffffffffffffffffffffffff1673ffffffffffffffffffffffffffffffffffffffff166108fc479081150290604051600060405180830381858888f19350505050158015610592573d6000803e3d6000fd5b50565b60606003805480602002602001604051908101604052809291908181526020016000905b8282101561073d57838290600052602060002090600502016040518060a00160405290816000820160009054906101000a900473ffffffffffffffffffffffffffffffffffffffff1673ffffffffffffffffffffffffffffffffffffffff1673ffffffffffffffffffffffffffffffffffffffff1681526020016001820160009054906101000a900473ffffffffffffffffffffffffffffffffffffffff1673ffffffffffffffffffffffffffffffffffffffff1673ffffffffffffffffffffffffffffffffffffffff168152602001600282015481526020016003820180546106a290610d61565b80601f01602080910402602001604051908101604052809291908181526020018280546106ce90610d61565b801561071b5780601f106106f05761010080835404028352916020019161071b565b820191906000526020600020905b8154815290600101906020018083116106fe57829003601f168201915b50505050508152602001600482015481525050815260200190600101906105b9565b50505050905090565b6000600154905090565b6000604051905090565b600080fd5b600080fd5b600080fd5b600080fd5b6000601f19601f8301169050919050565b7f4e487b7100000000000000000000000000000000000000000000000000000000600052604160045260246000fd5b6107b78261076e565b810181811067ffffffffffffffff821117156107d6576107d561077f565b5b80604052505050565b60006107e9610750565b90506107f582826107ae565b919050565b600067ffffffffffffffff8211156108155761081461077f565b5b61081e8261076e565b9050602081019050919050565b82818337600083830152505050565b600061084d610848846107fa565b6107df565b90508281526020810184848401111561086957610868610769565b5b61087484828561082b565b509392505050565b600082601f83011261089157610890610764565b5b81356108a184826020860161083a565b91505092915050565b6000602082840312156108c0576108bf61075a565b5b600082013567ffffffffffffffff8111156108de576108dd61075f565b5b6108ea8482850161087c565b91505092915050565b6000819050919050565b610906816108f3565b82525050565b600060208201905061092160008301846108fd565b92915050565b600073ffffffffffffffffffffffffffffffffffffffff82169050919050565b600061095282610927565b9050919050565b61096281610947565b82525050565b600060208201905061097d6000830184610959565b92915050565b600081519050919050565b600082825260208201905092915050565b6000819050602082019050919050565b6109b881610947565b82525050565b6109c7816108f3565b82525050565b600081519050919050565b600082825260208201905092915050565b60005b83811015610a075780820151818401526020810190506109ec565b60008484015250505050565b6000610a1e826109cd565b610a2881856109d8565b9350610a388185602086016109e9565b610a418161076e565b840191505092915050565b600060a083016000830151610a6460008601826109af565b506020830151610a7760208601826109af565b506040830151610a8a60408601826109be565b5060608301518482036060860152610aa28282610a13565b9150506080830151610ab760808601826109be565b508091505092915050565b6000610ace8383610a4c565b905092915050565b6000602082019050919050565b6000610aee82610983565b610af8818561098e565b935083602082028501610b0a8561099f565b8060005b85811015610b465784840389528151610b278582610ac2565b9450610b3283610ad6565b925060208a01995050600181019050610b0e565b50829750879550505050505092915050565b60006020820190508181036000830152610b728184610ae3565b905092915050565b600082825260208201905092915050565b7f596f752063616e206e6f742074697070656420796f757273656c660000000000600082015250565b6000610bc1601b83610b7a565b9150610bcc82610b8b565b602082019050919050565b60006020820190508181036000830152610bf081610bb4565b9050919050565b7f546970206d75737420626520677265617465727468616e203000000000000000600082015250565b6000610c2d601983610b7a565b9150610c3882610bf7565b602082019050919050565b60006020820190508181036000830152610c5c81610c20565b9050919050565b7f416e20616d6f756e74206d757374206265207374617465640000000000000000600082015250565b6000610c99601883610b7a565b9150610ca482610c63565b602082019050919050565b60006020820190508181036000830152610cc881610c8c565b9050919050565b7f4e487b7100000000000000000000000000000000000000000000000000000000600052601160045260246000fd5b6000610d09826108f3565b9150610d14836108f3565b9250828201905080821115610d2c57610d2b610ccf565b5b92915050565b7f4e487b7100000000000000000000000000000000000000000000000000000000600052602260045260246000fd5b60006002820490506001821680610d7957607f821691505b602082108103610d8c57610d8b610d32565b5b50919050565b60008190508160005260206000209050919050565b60006020601f8301049050919050565b600082821b905092915050565b600060088302610df47fffffffffffffffffffffffffffffffffffffffffffffffffffffffffffffffff82610db7565b610dfe8683610db7565b95508019841693508086168417925050509392505050565b6000819050919050565b6000610e3b610e36610e31846108f3565b610e16565b6108f3565b9050919050565b6000819050919050565b610e5583610e20565b610e69610e6182610e42565b848454610dc4565b825550505050565b600090565b610e7e610e71565b610e89818484610e4c565b505050565b5b81811015610ead57610ea2600082610e76565b600181019050610e8f565b5050565b601f821115610ef257610ec381610d92565b610ecc84610da7565b81016020851015610edb578190505b610eef610ee785610da7565b830182610e8e565b50505b505050565b600082821c905092915050565b6000610f1560001984600802610ef7565b1980831691505092915050565b6000610f2e8383610f04565b9150826002028217905092915050565b610f47826109cd565b67ffffffffffffffff811115610f6057610f5f61077f565b5b610f6a8254610d61565b610f75828285610eb1565b600060209050601f831160018114610fa85760008415610f96578287015190505b610fa08582610f22565b865550611008565b601f198416610fb686610d92565b60005b82811015610fde57848901518255600182019150602085019450602081019050610fb9565b86831015610ffb5784890151610ff7601f891682610f04565b8355505b6001600288020188555050505b505050505050565b600061101b826109cd565b6110258185610b7a565b93506110358185602086016109e9565b61103e8161076e565b840191505092915050565b600060608201905061105e60008301866108fd565b81810360208301526110708185611010565b905061107f60408301846108fd565b949350505050565b7f596f752063616e206f6e6c792077697468647261772066726f6d20796f75722060008201527f6163636f756e7400000000000000000000000000000000000000000000000000602082015250565b60006110e3602783610b7a565b91506110ee82611087565b604082019050919050565b60006020820190508181036000830152611112816110d6565b905091905056fea264697066735822122088037514bd2174c015e96c9e67a151f8b52de4c964d2910d9501c902725ff71964736f6c63430008110033",
  "linkReferences": {},
  "deployedLinkReferences": {}
}